{
  "contracts/HelloWorld.sol": {
    "HelloWorld": {
      "abi": [
        {
          "inputs": [
            {
              "internalType": "string",
              "name": "_message",
              "type": "string"
            }
          ],
          "stateMutability": "nonpayable",
          "type": "constructor"
        },
        {
          "inputs": [],
          "name": "greet",
          "outputs": [
            {
              "internalType": "string",
              "name": "",
              "type": "string"
            }
          ],
          "stateMutability": "view",
          "type": "function"
        }
      ],
      "evm": {
        "bytecode": {
          "linkReferences": {},
          "object": "608060405234801561001057600080fd5b5060405161050a38038061050a83398181016040528101906100329190610162565b806000908051906020019061004892919061004f565b5050610239565b828054600181600116156101000203166002900490600052602060002090601f01602090048101928261008557600085556100cc565b82601f1061009e57805160ff19168380011785556100cc565b828001600101855582156100cc579182015b828111156100cb5782518255916020019190600101906100b0565b5b5090506100d991906100dd565b5090565b5b808211156100f65760008160009055506001016100de565b5090565b600061010d610108846101d4565b6101a3565b90508281526020810184848401111561012557600080fd5b610130848285610204565b509392505050565b600082601f83011261014957600080fd5b81516101598482602086016100fa565b91505092915050565b60006020828403121561017457600080fd5b600082015167ffffffffffffffff81111561018e57600080fd5b61019a84828501610138565b91505092915050565b6000604051905081810181811067ffffffffffffffff821117156101ca576101c9610237565b5b8060405250919050565b600067ffffffffffffffff8211156101ef576101ee610237565b5b601f19601f8301169050602081019050919050565b60005b83811015610222578082015181840152602081019050610207565b83811115610231576000848401525b50505050565bfe5b6102c2806102486000396000f3fe608060405234801561001057600080fd5b506004361061002b5760003560e01c8063cfae321714610030575b600080fd5b61003861004e565b60405161004591906101ea565b60405180910390f35b6060600060405160200161006291906101bd565b604051602081830303815290604052905090565b600061008182610221565b61008b818561022c565b935061009b818560208601610248565b6100a48161027b565b840191505092915050565b6000815460018116600081146100cc57600181146100f157610135565b607f60028304166100dd818761023d565b955060ff1983168652808601935050610135565b600282046100ff818761023d565b955061010a8561020c565b60005b8281101561012c5781548189015260018201915060208101905061010d565b82880195505050505b505092915050565b600061014a60058361023d565b91507f48656c6c6f0000000000000000000000000000000000000000000000000000006000830152600582019050919050565b600061018a60018361023d565b91507f20000000000000000000000000000000000000000000000000000000000000006000830152600182019050919050565b60006101c88261013d565b91506101d38261017d565b91506101df82846100af565b915081905092915050565b600060208201905081810360008301526102048184610076565b905092915050565b60008190508160005260206000209050919050565b600081519050919050565b600082825260208201905092915050565b600081905092915050565b60005b8381101561026657808201518184015260208101905061024b565b83811115610275576000848401525b50505050565b6000601f19601f830116905091905056fea26469706673582212207a5cbb94fb5bc7dd07e4dfc34e1845f8195fba3d768a92cf1ed00e800a82baa564736f6c63430007060033",
          "opcodes": "PUSH1 0x80 PUSH1 0x40 MSTORE CALLVALUE DUP1 ISZERO PUSH2 0x10 JUMPI PUSH1 0x0 DUP1 REVERT JUMPDEST POP PUSH1 0x40 MLOAD PUSH2 0x50A CODESIZE SUB DUP1 PUSH2 0x50A DUP4 CODECOPY DUP2 DUP2 ADD PUSH1 0x40 MSTORE DUP2 ADD SWAP1 PUSH2 0x32 SWAP2 SWAP1 PUSH2 0x162 JUMP JUMPDEST DUP1 PUSH1 0x0 SWAP1 DUP1 MLOAD SWAP1 PUSH1 0x20 ADD SWAP1 PUSH2 0x48 SWAP3 SWAP2 SWAP1 PUSH2 0x4F JUMP JUMPDEST POP POP PUSH2 0x239 JUMP JUMPDEST DUP3 DUP1 SLOAD PUSH1 0x1 DUP2 PUSH1 0x1 AND ISZERO PUSH2 0x100 MUL SUB AND PUSH1 0x2 SWAP1 DIV SWAP1 PUSH1 0x0 MSTORE PUSH1 0x20 PUSH1 0x0 KECCAK256 SWAP1 PUSH1 0x1F ADD PUSH1 0x20 SWAP1 DIV DUP2 ADD SWAP3 DUP3 PUSH2 0x85 JUMPI PUSH1 0x0 DUP6 SSTORE PUSH2 0xCC JUMP JUMPDEST DUP3 PUSH1 0x1F LT PUSH2 0x9E JUMPI DUP1 MLOAD PUSH1 0xFF NOT AND DUP4 DUP1 ADD OR DUP6 SSTORE PUSH2 0xCC JUMP JUMPDEST DUP3 DUP1 ADD PUSH1 0x1 ADD DUP6 SSTORE DUP3 ISZERO PUSH2 0xCC JUMPI SWAP2 DUP3 ADD JUMPDEST DUP3 DUP2 GT ISZERO PUSH2 0xCB JUMPI DUP3 MLOAD DUP3 SSTORE SWAP2 PUSH1 0x20 ADD SWAP2 SWAP1 PUSH1 0x1 ADD SWAP1 PUSH2 0xB0 JUMP JUMPDEST JUMPDEST POP SWAP1 POP PUSH2 0xD9 SWAP2 SWAP1 PUSH2 0xDD JUMP JUMPDEST POP SWAP1 JUMP JUMPDEST JUMPDEST DUP1 DUP3 GT ISZERO PUSH2 0xF6 JUMPI PUSH1 0x0 DUP2 PUSH1 0x0 SWAP1 SSTORE POP PUSH1 0x1 ADD PUSH2 0xDE JUMP JUMPDEST POP SWAP1 JUMP JUMPDEST PUSH1 0x0 PUSH2 0x10D PUSH2 0x108 DUP5 PUSH2 0x1D4 JUMP JUMPDEST PUSH2 0x1A3 JUMP JUMPDEST SWAP1 POP DUP3 DUP2 MSTORE PUSH1 0x20 DUP2 ADD DUP5 DUP5 DUP5 ADD GT ISZERO PUSH2 0x125 JUMPI PUSH1 0x0 DUP1 REVERT JUMPDEST PUSH2 0x130 DUP5 DUP3 DUP6 PUSH2 0x204 JUMP JUMPDEST POP SWAP4 SWAP3 POP POP POP JUMP JUMPDEST PUSH1 0x0 DUP3 PUSH1 0x1F DUP4 ADD SLT PUSH2 0x149 JUMPI PUSH1 0x0 DUP1 REVERT JUMPDEST DUP2 MLOAD PUSH2 0x159 DUP5 DUP3 PUSH1 0x20 DUP7 ADD PUSH2 0xFA JUMP JUMPDEST SWAP2 POP POP SWAP3 SWAP2 POP POP JUMP JUMPDEST PUSH1 0x0 PUSH1 0x20 DUP3 DUP5 SUB SLT ISZERO PUSH2 0x174 JUMPI PUSH1 0x0 DUP1 REVERT JUMPDEST PUSH1 0x0 DUP3 ADD MLOAD PUSH8 0xFFFFFFFFFFFFFFFF DUP2 GT ISZERO PUSH2 0x18E JUMPI PUSH1 0x0 DUP1 REVERT JUMPDEST PUSH2 0x19A DUP5 DUP3 DUP6 ADD PUSH2 0x138 JUMP JUMPDEST SWAP2 POP POP SWAP3 SWAP2 POP POP JUMP JUMPDEST PUSH1 0x0 PUSH1 0x40 MLOAD SWAP1 POP DUP2 DUP2 ADD DUP2 DUP2 LT PUSH8 0xFFFFFFFFFFFFFFFF DUP3 GT OR ISZERO PUSH2 0x1CA JUMPI PUSH2 0x1C9 PUSH2 0x237 JUMP JUMPDEST JUMPDEST DUP1 PUSH1 0x40 MSTORE POP SWAP2 SWAP1 POP JUMP JUMPDEST PUSH1 0x0 PUSH8 0xFFFFFFFFFFFFFFFF DUP3 GT ISZERO PUSH2 0x1EF JUMPI PUSH2 0x1EE PUSH2 0x237 JUMP JUMPDEST JUMPDEST PUSH1 0x1F NOT PUSH1 0x1F DUP4 ADD AND SWAP1 POP PUSH1 0x20 DUP2 ADD SWAP1 POP SWAP2 SWAP1 POP JUMP JUMPDEST PUSH1 0x0 JUMPDEST DUP4 DUP2 LT ISZERO PUSH2 0x222 JUMPI DUP1 DUP3 ADD MLOAD DUP2 DUP5 ADD MSTORE PUSH1 0x20 DUP2 ADD SWAP1 POP PUSH2 0x207 JUMP JUMPDEST DUP4 DUP2 GT ISZERO PUSH2 0x231 JUMPI PUSH1 0x0 DUP5 DUP5 ADD MSTORE JUMPDEST POP POP POP POP JUMP JUMPDEST INVALID JUMPDEST PUSH2 0x2C2 DUP1 PUSH2 0x248 PUSH1 0x0 CODECOPY PUSH1 0x0 RETURN INVALID PUSH1 0x80 PUSH1 0x40 MSTORE CALLVALUE DUP1 ISZERO PUSH2 0x10 JUMPI PUSH1 0x0 DUP1 REVERT JUMPDEST POP PUSH1 0x4 CALLDATASIZE LT PUSH2 0x2B JUMPI PUSH1 0x0 CALLDATALOAD PUSH1 0xE0 SHR DUP1 PUSH4 0xCFAE3217 EQ PUSH2 0x30 JUMPI JUMPDEST PUSH1 0x0 DUP1 REVERT JUMPDEST PUSH2 0x38 PUSH2 0x4E JUMP JUMPDEST PUSH1 0x40 MLOAD PUSH2 0x45 SWAP2 SWAP1 PUSH2 0x1EA JUMP JUMPDEST PUSH1 0x40 MLOAD DUP1 SWAP2 SUB SWAP1 RETURN JUMPDEST PUSH1 0x60 PUSH1 0x0 PUSH1 0x40 MLOAD PUSH1 0x20 ADD PUSH2 0x62 SWAP2 SWAP1 PUSH2 0x1BD JUMP JUMPDEST PUSH1 0x40 MLOAD PUSH1 0x20 DUP2 DUP4 SUB SUB DUP2 MSTORE SWAP1 PUSH1 0x40 MSTORE SWAP1 POP SWAP1 JUMP JUMPDEST PUSH1 0x0 PUSH2 0x81 DUP3 PUSH2 0x221 JUMP JUMPDEST PUSH2 0x8B DUP2 DUP6 PUSH2 0x22C JUMP JUMPDEST SWAP4 POP PUSH2 0x9B DUP2 DUP6 PUSH1 0x20 DUP7 ADD PUSH2 0x248 JUMP JUMPDEST PUSH2 0xA4 DUP2 PUSH2 0x27B JUMP JUMPDEST DUP5 ADD SWAP2 POP POP SWAP3 SWAP2 POP POP JUMP JUMPDEST PUSH1 0x0 DUP2 SLOAD PUSH1 0x1 DUP2 AND PUSH1 0x0 DUP2 EQ PUSH2 0xCC JUMPI PUSH1 0x1 DUP2 EQ PUSH2 0xF1 JUMPI PUSH2 0x135 JUMP JUMPDEST PUSH1 0x7F PUSH1 0x2 DUP4 DIV AND PUSH2 0xDD DUP2 DUP8 PUSH2 0x23D JUMP JUMPDEST SWAP6 POP PUSH1 0xFF NOT DUP4 AND DUP7 MSTORE DUP1 DUP7 ADD SWAP4 POP POP PUSH2 0x135 JUMP JUMPDEST PUSH1 0x2 DUP3 DIV PUSH2 0xFF DUP2 DUP8 PUSH2 0x23D JUMP JUMPDEST SWAP6 POP PUSH2 0x10A DUP6 PUSH2 0x20C JUMP JUMPDEST PUSH1 0x0 JUMPDEST DUP3 DUP2 LT ISZERO PUSH2 0x12C JUMPI DUP2 SLOAD DUP2 DUP10 ADD MSTORE PUSH1 0x1 DUP3 ADD SWAP2 POP PUSH1 0x20 DUP2 ADD SWAP1 POP PUSH2 0x10D JUMP JUMPDEST DUP3 DUP9 ADD SWAP6 POP POP POP POP JUMPDEST POP POP SWAP3 SWAP2 POP POP JUMP JUMPDEST PUSH1 0x0 PUSH2 0x14A PUSH1 0x5 DUP4 PUSH2 0x23D JUMP JUMPDEST SWAP2 POP PUSH32 0x48656C6C6F000000000000000000000000000000000000000000000000000000 PUSH1 0x0 DUP4 ADD MSTORE PUSH1 0x5 DUP3 ADD SWAP1 POP SWAP2 SWAP1 POP JUMP JUMPDEST PUSH1 0x0 PUSH2 0x18A PUSH1 0x1 DUP4 PUSH2 0x23D JUMP JUMPDEST SWAP2 POP PUSH32 0x2000000000000000000000000000000000000000000000000000000000000000 PUSH1 0x0 DUP4 ADD MSTORE PUSH1 0x1 DUP3 ADD SWAP1 POP SWAP2 SWAP1 POP JUMP JUMPDEST PUSH1 0x0 PUSH2 0x1C8 DUP3 PUSH2 0x13D JUMP JUMPDEST SWAP2 POP PUSH2 0x1D3 DUP3 PUSH2 0x17D JUMP JUMPDEST SWAP2 POP PUSH2 0x1DF DUP3 DUP5 PUSH2 0xAF JUMP JUMPDEST SWAP2 POP DUP2 SWAP1 POP SWAP3 SWAP2 POP POP JUMP JUMPDEST PUSH1 0x0 PUSH1 0x20 DUP3 ADD SWAP1 POP DUP2 DUP2 SUB PUSH1 0x0 DUP4 ADD MSTORE PUSH2 0x204 DUP2 DUP5 PUSH2 0x76 JUMP JUMPDEST SWAP1 POP SWAP3 SWAP2 POP POP JUMP JUMPDEST PUSH1 0x0 DUP2 SWAP1 POP DUP2 PUSH1 0x0 MSTORE PUSH1 0x20 PUSH1 0x0 KECCAK256 SWAP1 POP SWAP2 SWAP1 POP JUMP JUMPDEST PUSH1 0x0 DUP2 MLOAD SWAP1 POP SWAP2 SWAP1 POP JUMP JUMPDEST PUSH1 0x0 DUP3 DUP3 MSTORE PUSH1 0x20 DUP3 ADD SWAP1 POP SWAP3 SWAP2 POP POP JUMP JUMPDEST PUSH1 0x0 DUP2 SWAP1 POP SWAP3 SWAP2 POP POP JUMP JUMPDEST PUSH1 0x0 JUMPDEST DUP4 DUP2 LT ISZERO PUSH2 0x266 JUMPI DUP1 DUP3 ADD MLOAD DUP2 DUP5 ADD MSTORE PUSH1 0x20 DUP2 ADD SWAP1 POP PUSH2 0x24B JUMP JUMPDEST DUP4 DUP2 GT ISZERO PUSH2 0x275 JUMPI PUSH1 0x0 DUP5 DUP5 ADD MSTORE JUMPDEST POP POP POP POP JUMP JUMPDEST PUSH1 0x0 PUSH1 0x1F NOT PUSH1 0x1F DUP4 ADD AND SWAP1 POP SWAP2 SWAP1 POP JUMP INVALID LOG2 PUSH5 0x6970667358 0x22 SLT KECCAK256 PUSH27 0x5CBB94FB5BC7DD07E4DFC34E1845F8195FBA3D768A92CF1ED00E80 EXP DUP3 0xBA 0xA5 PUSH5 0x736F6C6343 STOP SMOD MOD STOP CALLER "
        },
        "methodIdentifiers": {
          "greet()": "cfae3217"
        }
      }
    }
  }
}